{
  "contractName": "Payment",
  "abi": [
    {
      "inputs": [
        {
          "internalType": "uint256",
          "name": "",
          "type": "uint256"
        },
        {
          "internalType": "uint256",
          "name": "",
          "type": "uint256"
        }
      ],
      "name": "adj_list",
      "outputs": [
        {
          "internalType": "uint256",
          "name": "",
          "type": "uint256"
        }
      ],
      "stateMutability": "view",
      "type": "function",
      "constant": true
    },
    {
      "inputs": [],
      "name": "total_nodes",
      "outputs": [
        {
          "internalType": "uint256",
          "name": "",
          "type": "uint256"
        }
      ],
      "stateMutability": "view",
      "type": "function",
      "constant": true
    },
    {
      "inputs": [
        {
          "internalType": "uint256",
          "name": "user_id",
          "type": "uint256"
        },
        {
          "internalType": "string",
          "name": "user_name",
          "type": "string"
        }
      ],
      "name": "registerUser",
      "outputs": [],
      "stateMutability": "nonpayable",
      "type": "function"
    },
    {
      "inputs": [
        {
          "internalType": "uint256",
          "name": "user_1",
          "type": "uint256"
        },
        {
          "internalType": "uint256",
          "name": "user_2",
          "type": "uint256"
        },
        {
          "internalType": "int256",
          "name": "balance",
          "type": "int256"
        }
      ],
      "name": "createAcc",
      "outputs": [
        {
          "internalType": "string",
          "name": "",
          "type": "string"
        }
      ],
      "stateMutability": "nonpayable",
      "type": "function"
    },
    {
      "inputs": [
        {
          "internalType": "uint256",
          "name": "user_1",
          "type": "uint256"
        },
        {
          "internalType": "uint256",
          "name": "user_2",
          "type": "uint256"
        }
      ],
      "name": "getbalance",
      "outputs": [
        {
          "internalType": "int256",
          "name": "",
          "type": "int256"
        }
      ],
      "stateMutability": "nonpayable",
      "type": "function"
    },
    {
      "inputs": [
        {
          "internalType": "uint256",
          "name": "user_1",
          "type": "uint256"
        },
        {
          "internalType": "uint256",
          "name": "user_2",
          "type": "uint256"
        },
        {
          "internalType": "int256",
          "name": "money",
          "type": "int256"
        }
      ],
      "name": "sendAmount",
      "outputs": [
        {
          "internalType": "string",
          "name": "",
          "type": "string"
        }
      ],
      "stateMutability": "nonpayable",
      "type": "function"
    },
    {
      "inputs": [
        {
          "internalType": "uint256",
          "name": "user_1",
          "type": "uint256"
        },
        {
          "internalType": "uint256",
          "name": "user_2",
          "type": "uint256"
        }
      ],
      "name": "closeAccount",
      "outputs": [],
      "stateMutability": "nonpayable",
      "type": "function"
    }
  ],
  "bytecode": "0x60806040526000805534801561001457600080fd5b506113d6806100246000396000f3fe608060405234801561001057600080fd5b506004361061007d5760003560e01c806337daf7001161005b57806337daf700146100ec578063bd45d6eb1461011c578063ebcb3aa414610138578063ec836e66146101685761007d565b8063104046bd146100825780631c57333e146100a05780632dc817b2146100bc575b600080fd5b61008a610198565b6040516100979190610c5f565b60405180910390f35b6100ba60048036038101906100b59190610e00565b61019e565b005b6100d660048036038101906100d19190610e92565b610245565b6040516100e39190610f64565b60405180910390f35b61010660048036038101906101019190610e92565b6103d6565b6040516101139190610f64565b60405180910390f35b61013660048036038101906101319190610f86565b610621565b005b610152600480360381019061014d9190610f86565b6109d3565b60405161015f9190610c5f565b60405180910390f35b610182600480360381019061017d9190610f86565b610a10565b60405161018f9190610fd5565b60405180910390f35b60005481565b60016000808282546101b0919061101f565b9250508190555060008067ffffffffffffffff8111156101d3576101d2610cd5565b5b6040519080825280602002602001820160405280156102015781602001602082028036833780820191505090505b50905060018190806001815401808255809150506001900390600052602060002001600090919091909150908051906020019061023f929190610bdc565b50505050565b6060600082600261025587610a6a565b61025e87610a6a565b60405160200161026f9291906110db565b60405160208183030381529060405260405161028b919061110a565b9081526020016040518091039020546102a49190611121565b12156102ca5760405180606001604052806022815260200161137f6022913990506103cf565b8160026102d686610a6a565b6102df86610a6a565b6040516020016102f09291906110db565b60405160208183030381529060405260405161030c919061110a565b908152602001604051809103902060008282546103299190611121565b9250508190555081600261033c85610a6a565b61034587610a6a565b6040516020016103569291906110db565b604051602081830303815290604052604051610372919061110a565b9081526020016040518091039020600082825461038f9190611164565b925050819055506040518060400160405280600e81526020017f54786e205375636365737366756c00000000000000000000000000000000000081525090505b9392505050565b606060005b600185815481106103ef576103ee6111a8565b5b9060005260206000200180549050811015610496578360018681548110610419576104186111a8565b5b906000526020600020018281548110610435576104346111a8565b5b906000526020600020015403610483576040518060400160405280601681526020017f4163636f756e7420616c7265616479206578697374730000000000000000000081525091505061061a565b808061048e906111d7565b9150506103db565b50600184815481106104ab576104aa6111a8565b5b90600052602060002001839080600181540180825580915050600190039060005260206000200160009091909190915055600183815481106104f0576104ef6111a8565b5b9060005260206000200184908060018154018082558091505060019003906000526020600020016000909190919091505560028261052e919061124e565b600261053986610a6a565b61054286610a6a565b6040516020016105539291906110db565b60405160208183030381529060405260405161056f919061110a565b90815260200160405180910390208190555060028261058e919061124e565b600261059985610a6a565b6105a287610a6a565b6040516020016105b39291906110db565b6040516020818303038152906040526040516105cf919061110a565b9081526020016040518091039020819055506040518060400160405280601381526020017f4a6f696e74204163636f756e742061646465640000000000000000000000000081525090505b9392505050565b60005b60018381548110610638576106376111a8565b5b906000526020600020018054905081101561078f578160018481548110610662576106616111a8565b5b90600052602060002001828154811061067e5761067d6111a8565b5b90600052602060002001540361077c57600183815481106106a2576106a16111a8565b5b9060005260206000200160018085815481106106c1576106c06111a8565b5b90600052602060002001805490506106d9919061127f565b815481106106ea576106e96111a8565b5b906000526020600020015460018481548110610709576107086111a8565b5b906000526020600020018281548110610725576107246111a8565b5b906000526020600020018190555060018381548110610747576107466111a8565b5b90600052602060002001805480610761576107606112b3565b5b6001900381819060005260206000200160009055905561078f565b8080610787906111d7565b915050610624565b600090505b600182815481106107a8576107a76111a8565b5b90600052602060002001805490508110156108ff5782600183815481106107d2576107d16111a8565b5b9060005260206000200182815481106107ee576107ed6111a8565b5b9060005260206000200154036108ec5760018281548110610812576108116111a8565b5b906000526020600020016001808481548110610831576108306111a8565b5b9060005260206000200180549050610849919061127f565b8154811061085a576108596111a8565b5b906000526020600020015460018381548110610879576108786111a8565b5b906000526020600020018281548110610895576108946111a8565b5b9060005260206000200181905550600182815481106108b7576108b66111a8565b5b906000526020600020018054806108d1576108d06112b3565b5b600190038181906000526020600020016000905590556108ff565b80806108f7906111d7565b915050610794565b60018281548110610913576109126111a8565b5b906000526020600020018054905081146109ce57600261093284610a6a565b61093b84610a6a565b60405160200161094c9291906110db565b604051602081830303815290604052604051610968919061110a565b908152602001604051809103902060009055600261098583610a6a565b61098e85610a6a565b60405160200161099f9291906110db565b6040516020818303038152906040526040516109bb919061110a565b9081526020016040518091039020600090555b505050565b600182815481106109e357600080fd5b9060005260206000200181815481106109fb57600080fd5b90600052602060002001600091509150505481565b60006002610a1d84610a6a565b610a2684610a6a565b604051602001610a379291906110db565b604051602081830303815290604052604051610a53919061110a565b908152602001604051809103902054905092915050565b606060008203610ab1576040518060400160405280600181526020017f30000000000000000000000000000000000000000000000000000000000000008152509050610bd7565b6000808390505b6000811115610ae3578180610acc906111d7565b925050600a81610adc919061124e565b9050610ab8565b5060008167ffffffffffffffff811115610b0057610aff610cd5565b5b6040519080825280601f01601f191660200182016040528015610b325781602001600182028036833780820191505090505b50905060008290505b6000811115610bd0576030600a86610b5391906112e2565b610b5d9190611320565b60f81b8284610b6b90611355565b94508481518110610b7f57610b7e6111a8565b5b60200101907effffffffffffffffffffffffffffffffffffffffffffffffffffffffffffff1916908160001a905350600a85610bbb919061124e565b94508080610bc890611355565b915050610b3b565b5080925050505b919050565b828054828255906000526020600020908101928215610c18579160200282015b82811115610c17578251825591602001919060010190610bfc565b5b509050610c259190610c29565b5090565b5b80821115610c42576000816000905550600101610c2a565b5090565b6000819050919050565b610c5981610c46565b82525050565b6000602082019050610c746000830184610c50565b92915050565b6000604051905090565b600080fd5b600080fd5b610c9781610c46565b8114610ca257600080fd5b50565b600081359050610cb481610c8e565b92915050565b600080fd5b600080fd5b6000601f19601f8301169050919050565b7f4e487b7100000000000000000000000000000000000000000000000000000000600052604160045260246000fd5b610d0d82610cc4565b810181811067ffffffffffffffff82111715610d2c57610d2b610cd5565b5b80604052505050565b6000610d3f610c7a565b9050610d4b8282610d04565b919050565b600067ffffffffffffffff821115610d6b57610d6a610cd5565b5b610d7482610cc4565b9050602081019050919050565b82818337600083830152505050565b6000610da3610d9e84610d50565b610d35565b905082815260208101848484011115610dbf57610dbe610cbf565b5b610dca848285610d81565b509392505050565b600082601f830112610de757610de6610cba565b5b8135610df7848260208601610d90565b91505092915050565b60008060408385031215610e1757610e16610c84565b5b6000610e2585828601610ca5565b925050602083013567ffffffffffffffff811115610e4657610e45610c89565b5b610e5285828601610dd2565b9150509250929050565b6000819050919050565b610e6f81610e5c565b8114610e7a57600080fd5b50565b600081359050610e8c81610e66565b92915050565b600080600060608486031215610eab57610eaa610c84565b5b6000610eb986828701610ca5565b9350506020610eca86828701610ca5565b9250506040610edb86828701610e7d565b9150509250925092565b600081519050919050565b600082825260208201905092915050565b60005b83811015610f1f578082015181840152602081019050610f04565b60008484015250505050565b6000610f3682610ee5565b610f408185610ef0565b9350610f50818560208601610f01565b610f5981610cc4565b840191505092915050565b60006020820190508181036000830152610f7e8184610f2b565b905092915050565b60008060408385031215610f9d57610f9c610c84565b5b6000610fab85828601610ca5565b9250506020610fbc85828601610ca5565b9150509250929050565b610fcf81610e5c565b82525050565b6000602082019050610fea6000830184610fc6565b92915050565b7f4e487b7100000000000000000000000000000000000000000000000000000000600052601160045260246000fd5b600061102a82610c46565b915061103583610c46565b925082820190508082111561104d5761104c610ff0565b5b92915050565b600081905092915050565b600061106982610ee5565b6110738185611053565b9350611083818560208601610f01565b80840191505092915050565b7f2d3e000000000000000000000000000000000000000000000000000000000000600082015250565b60006110c5600283611053565b91506110d08261108f565b600282019050919050565b60006110e7828561105e565b91506110f2826110b8565b91506110fe828461105e565b91508190509392505050565b6000611116828461105e565b915081905092915050565b600061112c82610e5c565b915061113783610e5c565b925082820390508181126000841216828213600085121516171561115e5761115d610ff0565b5b92915050565b600061116f82610e5c565b915061117a83610e5c565b9250828201905082811215600083121683821260008412151617156111a2576111a1610ff0565b5b92915050565b7f4e487b7100000000000000000000000000000000000000000000000000000000600052603260045260246000fd5b60006111e282610c46565b91507fffffffffffffffffffffffffffffffffffffffffffffffffffffffffffffffff820361121457611213610ff0565b5b600182019050919050565b7f4e487b7100000000000000000000000000000000000000000000000000000000600052601260045260246000fd5b600061125982610c46565b915061126483610c46565b9250826112745761127361121f565b5b828204905092915050565b600061128a82610c46565b915061129583610c46565b92508282039050818111156112ad576112ac610ff0565b5b92915050565b7f4e487b7100000000000000000000000000000000000000000000000000000000600052603160045260246000fd5b60006112ed82610c46565b91506112f883610c46565b9250826113085761130761121f565b5b828206905092915050565b600060ff82169050919050565b600061132b82611313565b915061133683611313565b9250828201905060ff81111561134f5761134e610ff0565b5b92915050565b600061136082610c46565b91506000820361137357611372610ff0565b5b60018203905091905056fe54786e204661696c65642064756520746f204e656761746976652042616c616e6365a2646970667358221220a0b916caa159061aabac1716d00f479b81f9d07b899ffd56790a1207642f68cd64736f6c63430008130033",
  "immutableReferences": {},
  "source": "// SPDX-License-Identifier: MIT\npragma solidity >=0.4.22 <0.9.0;\n\ncontract Payment {\n\n  //Total Node Count i.e 100\n  uint public total_nodes=0;\n\n  //2D array to keep track of Adjancency list  (Dynamic)\n  uint[][] public adj_list;\n\n  /*This will track the balances in each edge ->\n     eg-  4-5 => 5 Ether\n          5-4 => 5 Ether so on\n  */ \n  mapping(string => int256) bal;\n\n\n  function registerUser(uint user_id, string memory user_name) public{\n    total_nodes+=1;\n    //Pushing a particular 1D adjacency array for a node\n    uint[] memory single_list = new uint[](0);\n    adj_list.push(single_list);\n  }\n\n  //Balace to sent from an exponential distribution from python\n  function createAcc(uint user_1, uint user_2, int256 balance) public returns(string memory){\n    \n    // If already a connection exist between them\n    for(uint i=0;i<adj_list[user_1].length;i++){\n      \n      //Account already exists\n      if(adj_list[user_1][i] == user_2)\n        return \"Account already exists\";\n    }\n\n    //Adding to the adjacency list of both\n    adj_list[user_1].push(user_2);\n    adj_list[user_2].push(user_1);\n\n\n    /* Map storing the mapping of balances\n      4->5 = 5 in this format \n    */\n\n    bal[string(abi.encodePacked(toString(user_1), \"->\", toString(user_2)))] = int256(uint(balance)/uint(2));\n    bal[string(abi.encodePacked(toString(user_2), \"->\", toString(user_1)))] = int256(uint(balance)/uint(2));\n\n    return \"Joint Account added\";\n  }\n\n  function getbalance(uint user_1, uint user_2) public returns (int256){\n    return bal[string(abi.encodePacked(toString(user_1), \"->\", toString(user_2)))];\n  }\n  \n  function sendAmount(uint user_1, uint user_2, int256 money) public returns (string memory){\n    /*Todo -  Check money > 0\n              Do a BFS traversal to find the shortest path thus checking the money on the path \n              as we go\n                Once Path is found -- Backtrack path and update the balances\n\n              As msg in teams - One can find the next shortest path by not inputting\n              the final node(user2) in visited array\n    */\n  if (bal[string(abi.encodePacked(toString(user_1), \"->\", toString(user_2)))]-money<0)\n  {\n    return \"Txn Failed due to Negative Balance\";\n  }\n   else {\n   bal[string(abi.encodePacked(toString(user_1), \"->\", toString(user_2)))]-=money; \n   bal[string(abi.encodePacked(toString(user_2), \"->\", toString(user_1)))]+=money;\n   return \"Txn Successful\";\n   }\n  } \n\n  function closeAccount(uint user_1, uint user_2) public{\n    \n    uint i =0;\n    //To traverse to delete user2 from the adj_list of user1 \n    while (i < adj_list[user_1].length) {\n      if (adj_list[user_1][i] == user_2) {\n        adj_list[user_1][i] = adj_list[user_1][adj_list[user_1].length-1];\n        adj_list[user_1].pop();\n        break;\n      }\n      i++;\n    }\n    i=0;\n    while (i < adj_list[user_2].length) {\n      if (adj_list[user_2][i] == user_1) {\n        adj_list[user_2][i] = adj_list[user_2][adj_list[user_2].length-1];\n        adj_list[user_2].pop();\n        break;\n      }\n      i++;\n    }\n\n    //Deleting the edge mappings from the edge->balance map\n\n    //COndition to check if account existed\n    if (i!=adj_list[user_2].length)\n    {\n      delete bal[string(abi.encodePacked(toString(user_1), \"->\", toString(user_2)))];\n      delete bal[string(abi.encodePacked(toString(user_2), \"->\", toString(user_1)))];\n    }\n\n  }\n\n\nfunction toString(uint value) internal pure returns (string memory) {\n      // Special case for 0\n        if (value == 0) {\n            return \"0\";\n        }\n\n        // Determine the number of digits in the value\n        uint digits = 0;\n        for (uint i = value; i > 0; i /= 10) {\n            digits++;\n        }\n\n        // Allocate a buffer to store the string\n        bytes memory buffer = new bytes(digits);\n\n        // Convert each digit to a character and store it in the buffer\n        for (uint i = digits; i > 0; i--) {\n            buffer[--digits] = bytes1(uint8(value % 10) + 48);\n            value /= 10;\n        }\n\n        // Return the resulting string\n        return string(buffer);\n    }\n}",
  "sourcePath": "D:\\Blockchain\\Assignment3\\HW3\\contracts\\Payment.sol",
  "compiler": {
    "name": "solc",
    "version": "0.8.19+commit.7dd6d404.Emscripten.clang"
  },
  "schemaVersion": "3.4.13",
  "updatedAt": "2023-04-16T07:46:32.601Z",
  "networkType": "ethereum",
  "devdoc": {
    "kind": "dev",
    "methods": {},
    "version": 1
  },
  "userdoc": {
    "kind": "user",
    "methods": {},
    "version": 1
  }
}